:03000000020929C9
:0C092900787FE4F6D8FD7581200209708B
:100B1800C281C2807F147E00120AF8E4F5907F3803
:0D0B2800120A657F0C120A657F01020A6542
:100A65008F09C2817F017E00120AF8D2807F017E44
:100A750000120AF88509907F017E00120AF8C280EB
:070A85007F017E00020AF868
:100A8C008F0CD2817F017E00120AF8D2807F017E0A
:100A9C0000120AF8850C907F017E00120AF8C280C1
:070AAC007F017E00020AF841
:060AB3008B088A09890A84
:100AB900E4F50BAB08AA09A90A850B827583001214
:0C0AC9000A38FF6007120A8C050B80E75A
:010AD50022FE
:050BAA007F01020A6555
:100A0700EF14600E146012146016240370198D0819
:100A17008017ED2440F5088010ED2410F5088009B3
:100A2700ED2450F50880028D08E5084480FF020A8E
:010A37006559
:100AF800E4FDFCC3ED9FEC9E5015E4FBFA0BBB0034
:0F0B0800010ABA04F8BBFBF50DBD00010C80E437
:010B170022BB
:1009B5004F4E20004F4646004D31004D32004D331D
:1009C500004D34004143205374617475733A2020FF
:1009D50020004C69676874205374617475733A001C
:1009E500202020536D61727420486F6D6520202092
:1009F5000020576520416C776179732048657265E1
:020A05002000CF
:080B8900010E00010D00C10086
:10080000120B18120BAF7F01120B927F01120B9883
:100810007F01120B9E7F01120BA4120B35120B7D70
:100820003000FA120B51EF702D050EE50EB4010FDA
:100830007D0AE4FF120A077BFF7A0979B58014E587
:100840000EB40212E4F50E7D0AFF120A077BFF7A4E
:100850000979B9120AB3120B67EF70C1050DE50DE6
:10086000640170197D0E7F01120A077BFF7A0979F6
:10087000BD120AB3E4FF120BA47F01801DE50D64D5
:1008800002701E7D0E7F01120A077BFF7A0979C074
:10089000120AB3E4FF120BA4E4FF120B9E7F018047
:1008A00022E50D640370237D0E7F01120A077BFF92
:1008B0007A0979C3120AB3E4FF120BA4E4FF120B06
:1008C0009EE4FF120B987F018027E50D64047027DA
:1008D0007D0E7F01120A077BFF7A0979C6120AB3DF
:1008E000E4FF120BA4E4FF120B9EE4FF120B98E44A
:1008F000FF120B9202081DE50D6405600302081D3E
:10090000F50D7D0D7F01120A077BFF7A0979B91277
:100910000AB37F01120BA47F01120B9E7F01120B01
:09092000987F01120B9202081DE0
:100AD600120BAAE4FDFF120A077BFF7A0979C912F5
:100AE6000AB3E4FD7F01120A077BFF7A0979D70270
:020AF6000AB341
:100B3500120BAA7BFF7A0979E5120AB3E4FD7F015E
:0C0B4500120A077BFF7A0979F6020AB356
:060B9200EF24FF92852212
:060B9800EF24FF9284220D
:060B9E00EF24FF92832208
:060BA400EF24FF92822203
:100B510020B2107F147E00120AF820B20630B2FDD6
:060B61007F00227F01224B
:100B670020B3107F147E00120AF820B30630B3FDBD
:060B77007F00227F012235
:050BAF00D286D287226E
:0C0B7D00208708208605D200120AD6222C
:10093500020800E493A3F8E493A34003F68001F2D0
:1009450008DFF48029E493A3F85407240CC8C333C3
:10095500C4540F4420C8834004F456800146F6DF92
:10096500E4800B0102040810204080900B89E47E8E
:10097500019360BCA3FF543F30E509541FFEE49387
:10098500A360010ECF54C025E060A840B8E493A34E
:10099500FAE493A3F8E493A3C8C582C8CAC583CA79
:1009A500F0A3C8C582C8CAC583CADFE9DEE780BE31
:010B91000063
:100A3800BB010CE58229F582E5833AF583E0225073
:100A480006E92582F8E622BBFE06E92582F8E222BD
:0D0A5800E58229F582E5833AF583E49322D7
:00000001FF
