:03000000020A5C95
:0C0A5C00787FE4F6D8FD758120020AA323
:100B6C00456E7465722050617373776F72643A00CE
:100B7C0057524F4E47205041535300417474656D8A
:100B8C00707473204C6566743A004143434553536B
:100B9C002044454E49454400494E54525544455213
:100BAC0020414C455254210057656C636F6D652094
:090BBC00486F6D65202D5F2D00CE
:080D8D00011D00011E00C10060
:10080000120CE2120DBC7F01120DAB7F01120DB173
:10081000120D4BEF64016003020955C200120DB7BF
:100820007BFF7A0B796C120C9DE4FD7F01120BC5E6
:10083000120AE8120D01E51D7023FF120DB17F01B0
:10084000120DAB750D03120BF6120D347F53120C03
:1008500076120D617F2C7E01120CC2807B150DE497
:10086000FF120DAB7F01120DB1E50D606B120DB7DC
:100870007BFF7A0B797C120C9D7F2C7E01120CC2BF
:10088000120DB77BFF7A0B7987120C9DE50D243092
:10089000FF120C4D7F2C7E01120CC2120DB77BFF94
:1008A0007A0B796C120C9DE4FD7F01120BC5120AC4
:1008B000E8120D01E51DB40115150DE50DB4010596
:1008C000E4FF120DAB7F647E00120CC2809BE51D1D
:1008D0007097751E01750D03E51EB40121E4F51E28
:1008E000FF120DB17F01120DAB120BF6120D347F0A
:1008F00053120C76120D617F2C7E01120CC2E50D95
:100900006003020810120DB77BFF7A0B7996120C68
:100910009DE4FD7F01120BC57BFF7A0B79A4120CBD
:100920009D7FE87E03120CC2E4F518E51820E0096B
:10093000E4FF120DAB7F0180077F01120DABE4FFD6
:10094000120DB17F2C7E01120CC20518E518C3945C
:100950000640D880FE300003020810120DB77BFF5E
:0C0960007A0B79B4120C9DD20002081032
:10096C00D2A0D2A1D2A27F327E00120CC2C2A3D2DC
:10097C00A4D2A5D2A620A00D7F327E00120CC230CC
:10098C00A0FD7F312220A10D7F327E00120CC230DF
:10099C00A1FD7F322220A20D7F327E00120CC230CC
:1009AC00A2FD7F3322D2A3C2A4D2A5D2A620A00D31
:1009BC007F327E00120CC230A0FD7F342220A10DAC
:1009CC007F327E00120CC230A1FD7F352220A20D99
:1009DC007F327E00120CC230A2FD7F3622D2A3D20F
:1009EC00A4C2A5D2A620A00D7F327E00120CC2306C
:1009FC00A0FD7F372220A10D7F327E00120CC23069
:100A0C00A1FD7F382220A20D7F327E00120CC23055
:100A1C00A2FD7F3922D2A3D2A4D2A5C2A620A00DBA
:100A2C007F327E00120CC230A0FD7F2A2220A10D45
:100A3C007F327E00120CC230A1FD7F302230A20327
:100A4C0002096C7F327E00120CC230A2FD7F232281
:100CE200C280C281C2827F147E00120CC2E4F590DF
:0F0CF2007F38120C247F0C120C247F01020C247B
:100C24008F1CC280C2827F017E00120CC2D2817FDF
:100C3400017E00120CC2851C907F017E00120CC242
:090C4400C2817F017E00020CC296
:100C4D008F1CD280C2827F017E00120CC2D2817FA6
:100C5D00017E00120CC2851C907F017E00120CC219
:090C6D00C2817F017E00020CC26D
:100C9D008B198A1A891BAB19AA1AA91B120D1B6075
:100CAD0013051BE51B7002051A14F9120D1BFF121B
:050CBD000C4D80E22255
:050DB7007F01020C2485
:100BC500EF14600E146012146016240370198D1B47
:100BD5008017ED2440F51B8010ED2410F51B8009CE
:100BE500ED2450F51B80028D1BE51B4480FF020C94
:010BF50024DB
:100CC200E4FDFCC3ED9FEC9E5015E4FBFA0BBB0068
:0F0CD200010ABA04F8BBFBF50DBD00010C80E46C
:010CE10022F0
:060DAB00EF24FF928522F7
:060DB100EF24FF928422F2
:100D4B0020B3107F147E00120CC220B30630B3FD0B
:060D5B007F01227F00224F
:050DBC00D286D287225F
:100D3400D286D2877F017E00120CC2C2867F017EDA
:070D440000120CC2C287225D
:100D6100C287C2867F017E00120CC2D287D2867FE3
:060D7100017E00020CC22D
:100D7700D286D2877F017E00120CC2308604C287DA
:060D8700C322C287D32243
:020C76008F19D4
:100C7800E4F51AE519339286D2877F017E00120CBB
:100C8800C2C287E51925E0F519051AE51AC39408C3
:050C980040E1020D77B0
:0B0DA0004F70656E00436C6F736500C0
:0A0D950005133132333400010D0361
:100BF600120DB77BFF7A0D79A0120C9D7FE87E035C
:100C0600120CC2120DB77BFF7A0D79A5120C9D7FCF
:0E0C1600F47E01120CC27F01120DB1020DB767
:100AE800E4F519F51974082519F8E4F60519E51956
:100AF800B404F2E4F51912096C8F1AE51A6423603C
:100B08005CE51AC394304023E51AD39439501CE5A8
:100B180019C39404501574082519F8A61A740825E1
:100B280019F8E6FF120C4D05198029E51A642A7098
:100B380023E519D39400401C151974082519F8E405
:100B4800F6AD197F01120BC57F20120C4DAD197F30
:100B580001120BC57F327E00120CC2809912096CFB
:030B6800BF23FAAE
:010B6B002267
:100D0100E4F51DFF74132FF8E6FE74082FF8E66E64
:090D11006003751D010FBF04EB26
:010D1A0022B6
:100A6800020800E493A3F8E493A34003F68001F29C
:100A780008DFF48029E493A3F85407240CC8C3338F
:100A8800C4540F4420C8834004F456800146F6DF5E
:100A9800E4800B0102040810204080900D8DE47E54
:100AA800019360BCA3FF543F30E509541FFEE49353
:100AB800A360010ECF54C025E060A840B8E493A31A
:100AC800FAE493A3F8E493A3C8C582C8CAC583CA45
:100AD800F0A3C8C582C8CAC583CADFE9DEE780BEFD
:010D9F000053
:100D1B00BB010689828A83E0225002E722BBFE02D6
:090D2B00E32289828A83E4932209
:00000001FF
